:020000040801F1
:100000007807002029020108FF0C0108AB0C010849
:10001000FD0C0108D9020108590F01080000000079
:10002000000000000000000000000000230D010897
:10003000DB02010800000000210D0108B90D0108D4
:100040004302010843020108430201084302010878
:100050004302010843020108430201084302010868
:100060004302010843020108430201084302010858
:100070004302010843020108430201084302010848
:100080004302010843020108430201084302010838
:100090004302010843020108430201084302010828
:1000A0004302010843020108430201084302010818
:1000B0004302010843020108430201084302010808
:1000C00043020108430201084302010843020108F8
:1000D000430201082D0F01084302010843020108F1
:1000E00043020108430201084302010843020108D8
:1000F00043020108430201084302010843020108C8
:1001000043020108430201084302010843020108B7
:1001100043020108430201084302010843020108A7
:100120004302010843020108430201084302010897
:100130004302010843020108430201084302010887
:100140004302010843020108430201084302010877
:100150004302010843020108430201084302010867
:100160004302010843020108430201084302010857
:100170004302010843020108430201080000000095
:10018000430201084302010800F002F800F03CF8C5
:100190000AA090E8000C82448344AAF10107DA45E2
:1001A00001D100F031F8AFF2090EBAE80F0013F0F8
:1001B000010F18BFFB1A43F001031847900E00000F
:1001C000B00E0000103A24BF78C878C1FAD85207A0
:1001D00024BF30C830C144BF04680C6070470000C1
:1001E0000023002400250026103A28BF78C1FBD840
:1001F000520728BF30C148BF0B6070471FB500F0E1
:1002000017FF1FBD10B510BD00F033F81146FFF702
:10021000F5FF00F0D5FE00F051F803B4FFF7F2FF50
:1002200003BC00F09AFE00000948804709480047D7
:10023000FEE7FEE7FEE7FEE7FEE7FEE7FEE7FEE796
:10024000FEE7FEE704480549054A064B70470000F3
:10025000BD0D010889010108780100207807002000
:10026000780300207803002070477047704770477C
:100270007047754600F02CF8AE46050069465346B7
:1002800020F00700854618B020B5FFF7DBFFBDE87A
:1002900020404FF000064FF000074FF000084FF0ED
:1002A000000B21F00701AC46ACE8C009ACE8C0097E
:1002B000ACE8C009ACE8C0098D46704710B50446EB
:1002C000AFF300802046BDE81040FFF7A6BF000056
:1002D0000048704718010020FEE7704790F835107D
:1002E000022903D08021416501207047052180F853
:1002F00035100068016821F001010160002070479D
:100300002DE9F84FDFF88C91002209F1040A0AF177
:10031000040B4FF00F080BF1040E01260B689640FA
:100320003340B34271D14C68022C01D0122C11D150
:10033000D40800EB84073D6A5407E40E08FA04FC75
:1003400025EA0C05D1F810C00CFA04FC4CEA050CA7
:10035000C7F820C007685400032591F804C0A540E1
:100360000CF0030CAF430CFA04FC4CEA070CC0F889
:1003700000C04F68012F05D0022F03D0112F01D0EC
:10038000122F11D18768D1F80CC0AF430CFA04FCCE
:100390004CEA070CC0F808C04768B7430E79C6F3AB
:1003A000001696403E434660C668AE438D68A54041
:1003B0003543C5604C68E40065D5374C256845F485
:1003C00080452560246822F0030504F480440094ED
:1003D000324C2E19D6F808789407250F08FA05F440
:1003E000A7432F4CA04201D1002424E02D4CA04271
:1003F00001D101241FE02C4CA04201D102241AE0BB
:100400002A4CA04202D1032415E03CE0284CA04233
:1004100001D104240FE0274CA04201D105240AE0B9
:10042000254CA04201D1062405E0244CA04201D174
:10043000072400E00824AC403C43C6F80848D9F83B
:1004400000404D464E689C43F60300D51C432C608B
:10045000DAF8004055464E689C43B60300D51C436D
:100460002C60DBF800405D464E689C43F60200D5E8
:100470001C432C60DEF8004075464E689C43B60273
:1004800000D51C432C60521C102AFFF446AFBDE877
:10049000F88F0000003C0140443802400030014029
:1004A000000002400004024000080240000C02402C
:1004B000001002400014024000180240001C0240DC
:1004C0000AB1816170470904FBE700000148006838
:1004D000000C7047002004E00148006870470000ED
:1004E0000400002002480168491C016070470000B8
:1004F00004000020094810B5016841F40071016052
:10050000016841F480610160052000F03FF80F2090
:1005100000F006F800F018F8002010BD003C024082
:1005200010B5044607484FF47A710068B0FBF1F04B
:1005300000F0C8FA00222146501E00F007F8002003
:1005400010BD00000000002070470000F0B40E4B0A
:100550001B68C3F30223C3F10704042C00D904244D
:100560001D1D072D01D2002300E0DB1E012606FA27
:1005700004F56D1E0D409D409E40761E164045EAD6
:100580000601F0BC00F0BCBB0CED00E0064A00F038
:10059000070110684FF6FF03184040EA01200349A5
:1005A00008431060704700000CED00E00000FA0501
:1005B0002DE9F047DFF85C9104460E46D9F80000BB
:1005C00000F00F01F0B28046B14207D289F8000076
:1005D000D9F8000000F00F00B04271D120784E4FE2
:1005E000800705D53868A16820F0F000084338601E
:1005F0002078C00756D048496068083901281AD0C9
:1006000002281BD0032819D009688907002957DA66
:10061000396821F0030101433960FFF75DFF0546AA
:10062000606841F28831012811D002281CD00328CB
:100630008A4625D032E009688903E7E7096889011D
:10064000E4E7FFF749FF411B514501D923E08A4602
:100650003868C0F381000128F3D123E0FFF73CFFA5
:10066000411B514501D916E08A463868C0F3810024
:100670000228F3D116E0FFF72FFF411B51450AD89E
:100680003868C0F381000328F5D10BE0FFF724FFA1
:10069000411B514502D90320BDE8F087386810F0AE
:1006A0000C0FF3D1D9F80010484601F00F01B14208
:1006B00008D980F80080006800F00F00B04201D037
:1006C0000120E9E72078400705D53868E16820F483
:1006D000E050084338602078000706D53868216963
:1006E00020F4604040EAC100386000F01BF839682F
:1006F000F02292FAA2F201F0F001B2FA82F2D140B5
:10070000064A515CC840064908600F20FFF708FF01
:100710000020C1E7003C0240083802403A100108BE
:100720000000002030B51948006810F00C0118488E
:1007300012D0184C04290ED008290DD1134A121FCB
:100740001168136801F03F015D0247F6C07304D5DC
:10075000B4FBF1F003E0204630BDB0FBF1F01168CE
:10076000194093FAA3F3B3FA83F3D94048431168CD
:100770004FF4403292FAA2F201F44031B2FA82F21E
:10078000D140491C4900B0FBF1F030BD08380240AF
:100790000024F40040787D012DE9F84F04460078EC
:1007A000DFF8F4A2BD4DC00748D0DAF8001050467B
:1007B000C1F38101012908D00068C0F3810002283B
:1007C0000AD1281D0068400206D52868800335D567
:1007D0006068002870D031E06068B0F5803F10D0CC
:1007E000B0F5A02F286810D020F480302860286849
:1007F00020F4802028606068A0B1FFF76DFE0646F7
:100800000CE0286840F48030F4E740F48020286051
:10081000F7E7FFF761FE801B642873D82868800320
:10082000F7D50BE0FFF758FE064604E0FFF754FE4D
:10083000801B6428F1D828688003F7D42078DFF87B
:10084000608280074FF0010B4FF0000943D5DAF8C2
:100850000010504611F00C0F4FF0F80709D0006857
:10086000C0F3810002280BD18B48001F00684002B2
:1008700006D42868800713D5E06801281CD10FE052
:10088000E068D0B1C8F800B0FFF726FE064604E0E5
:10089000FFF722FE801B0228BFD828688007F7D503
:1008A000286897FAA7F22169B2FA82F220F0F800DC
:1008B0009140084328600EE0EBE0C8F80090FFF795
:1008C0000BFE064604E0FFF707FE801B022819D83E
:1008D00028688007F7D42078000722D56E4F71482A
:1008E00061696C3779B1C0F800B0FFF7F5FD0646D5
:1008F00004E0FFF7F1FD801B022803D83868800769
:10090000F7D50EE079E0C0F80090FFF7E5FD064668
:1009100004E0FFF7E1FD801B02286ED838688007ED
:10092000F7D42078400750D55B483830016841F053
:100930008051016000685C4F00F080500090386882
:1009400040F480703860FFF7C7FD064604E0FFF70B
:10095000C3FD801B022850D83868C005F7D54E4F1C
:10096000A068683701280FD00528386810D020F01B
:1009700001003860386820F004003860A068B0B129
:10098000FFF7AAFD06460EE0386840F00100F4E7E4
:1009900040F004003860F7E7FFF79EFD811B41F24D
:1009A000883081426DD838688007F5D50DE0FFF7B3
:1009B00093FD064606E0FFF78FFD811B41F288306C
:1009C00081425ED838688007F5D4A069F0B3DAF8C0
:1009D0000010C1F3810102295BD00228484605D0EE
:1009E000C8F86000FFF778FD04464DE04746C8F8B8
:1009F0006000FFF771FD064605E042E0FFF76CFD81
:100A0000801B02283DD828688001F7D4D4E907016B
:100A1000084347F6C07292FAA2F2616AB2FA82F211
:100A20009140A26A4FF0FF3303EB52024FF4403380
:100A300093FAA3F3B3FA83F39A4011434FF0706231
:100A400092FAA2F20843B2FA82F200E01FE0E16AF1
:100A5000914008431049091F0860C7F860B0FFF7CC
:100A60003BFD044604E0FFF737FD001B022808D8D1
:100A700028688001F7D50AE0FFF72EFD001B022849
:100A800002D90320BDE8F88F28688001F4D4002043
:100A9000F8E70120F6E7000008380240003802407D
:100AA00000004742800E4742007000404FF0E021B6
:100AB0000428086903D020F004000861704740F062
:100AC0000400FAE710B5401EB0F1807F01D3012089
:100AD00010BD4FF0E02460610F21601700F010F9A5
:100AE0000020A06107202061002010BD704710F891
:100AF000391F40780843704770B502680446106893
:100B0000D168536910F00F0F50D003F0010501F4C4
:100B1000907635435DD0C20705D0CA0503D5E26B98
:100B200042F00102E263420705D5DA0703D0E26B27
:100B300042F00202E263820705D5DA0703D0E26BD6
:100B400042F00402E263020705D5DA0703D0E26B44
:100B500042F00802E263E26B002A33D0800604D53B
:100B6000880602D5204600F069F920684069E16BEB
:100B7000C0F38010090700D428B3204600F050F9D4
:100B80002068416949061AD5416921F04001416157
:100B9000606BA0B11B490165606BFFF79FFB0028EC
:100BA00010D0606B016DBDE870400847830610D51A
:100BB0008B060ED52046BDE8704000F03FB92046B8
:100BC000FFF794FF70BD2046FFF790FF0020E06321
:100BD00070BD030606D50B0604D52046BDE870405F
:100BE00000F072B94006F3D54806F1D5D168204629
:100BF00021F04001D160202184F8391000F054F830
:100C000070BD0000110E010890F83A30202B1DD164
:100C1000D1B1CAB190F83830012B17D081628285EA
:100C2000C2850021C163222280F83A2080F8381062
:100C300001684A6942F001024A610068C16841F4F2
:100C40009071C160002070470120704702207047FA
:100C500030B50068114988420CD1114A508801040E
:100C600008D41146440409784FF0000306D50A2938
:100C700001D0538030BD40F400400DE00D2909D073
:100C8000C0F30D04074D401C80B229555080C72881
:100C9000EFD830BD40F48040508030BD001001409E
:100CA0000C000020100000207047FEE7114810B52E
:100CB000016886B041F02001016000680E4C00F030
:100CC000200005904FF4C060009001200190029038
:100CD0000320039069462046FFF712FB01225102D0
:100CE0002046FFF7EDFB012291022046FFF7E8FBCB
:100CF00006B010BD3038024000140240FEE77047D5
:100D00000907090E002806DA00F00F0000F1E020C4
:100D100080F8141D704700F1E02080F8001470473F
:100D20007047704770B5214C92B00025266846F098
:100D300080562660246804F0805411941C4C266868
:100D400046F48046266024680DF1240C04F48044A7
:100D500011940124009424040194022406948CE844
:100D60000D006605CDE907616846FFF715FD00B186
:100D7000FEE70CA90F2081E831004FF4A0500F903E
:100D80004FF48050109005210CA8FFF711FC00B122
:100D9000FEE7FFF79BFB41F20101884204D10548C1
:100DA000016841F48071016012B070BD40380240AA
:100DB00000700040003C0240FFF794BB10480168FF
:100DC00041F4700101600F48016841F001010160C8
:100DD0000C4A00210832116002680B4B1A40026075
:100DE000031D0A4A1A60026822F480220260054844
:100DF0000C300160024958068039086070470000D5
:100E000088ED00E000380240FFFFF6FE10300024BD
:100E100010B5806B0021C185C184FFF767FE10BD4E
:100E20000168CA6822F49072CA6001684A6922F0B7
:100E300001024A61202180F83A10704710B590F8FD
:100E40003A10222901D0022010BD8168B1F5805FDF
:100E500011D00169002901681FD0496801F07F03A2
:100E6000816A4A1C82620B70C18D491E0904090CFB
:100E7000C18518D026E00269816A002A026852689A
:100E800005D0D2B20A80816A491C8162ECE7C2F3C4
:100E900008020A80816A891CF7E74A68816A4B1C4C
:100EA00083620A70E0E70168CA6822F49072CA603F
:100EB00001684A6922F001024A61202180F83A1053
:100EC000FFF7C6FE002010BD90F83910212901D08F
:100ED000022070478168B1F5805F016A0BD04A1C1F
:100EE0000262026809785160C18C491E0904090C2C
:100EF000C1840ED017E009880268C1F3080151606F
:100F000001690029016A02D0491C0162ECE7891CD1
:100F1000FBE70168CA6822F08002CA600068C16805
:100F200041F04001C16000207047000010B5084842
:100F3000FFF7E2FD0648FFF7DAFD2028FAD101228B
:100F400004490348FFF760FE0028F8D110BD0000F7
:100F5000D80000200C000020FEE7704710B50446C2
:100F60000420FFF7A3FD0148046010BD0800002025
:100F700070B5054600244FF47A7603E0304600F061
:100F800005F8641CAC42F9D370BD000070B54FF099
:100F9000E02500216C69094AAB6912685043AA69CF
:100FA0009A42FCD002D2A3EB020302E0A4EB0206B9
:100FB0003344194413468142F1D370BD0800002028
:100FC000194918480860FFF795FA072302220821FB
:100FD0004FF4A870FFF7A6FEA820FFF7BFFFFFF7AA
:100FE00065FE4FF40074114D66004FF4FA7700224D
:100FF00021462846FFF764FA012231462846FFF7CA
:101000005FFA3846FFF7B4FF012221462846FFF772
:1010100057FA002231462846FFF752FA3846FFF7C2
:10102000A7FFE4E70000010808ED00E0001402401B
:101030004FF04070E1EE100A704700000000000021
:101040000000010203040607080900006C100108F3
:101050000000002010000000C40101087C100108FD
:101060001000002068070000E00101080024F400DF
:0C10700000000000000000000000000074
:040000050801018964
:00000001FF
