:020000040800F2
:10000000C80C0020A5010008571C0008E51A0008CC
:10001000551C00082B070008912300080000000071
:10002000000000000000000000000000991D000812
:100030002D07000800000000591C00089B1D000847
:10004000BF010008BF010008BF010008BF01000890
:10005000BF010008BF010008BF010008BF01000880
:10006000BF010008BF010008BF010008BF01000870
:10007000BF010008BF010008BF010008BF01000860
:10008000BF010008BF010008BF010008BF01000850
:10009000BF010008BF010008BF010008BF01000840
:1000A000BF010008BF010008BF010008BF01000830
:1000B000BF010008BF010008BF010008BF01000820
:1000C000BF010008BF010008BF010008BF01000810
:1000D000BF01000885230008BF010008BF01000818
:1000E000BF010008BF010008BF010008BF010008F0
:1000F000BF010008BF010008BF010008BF010008E0
:10010000BF010008BF010008BF010008BF010008CF
:10011000BF010008BF010008791E0008BF010008E8
:10012000BF010008BF010008BF010008BF010008AF
:10013000BF010008BF010008BF010008BF0100089F
:10014000BF010008BF010008BF010008BF0100088F
:10015000BF010008BF010008BF010008BF0100087F
:10016000BF010008BF010008BF010008BF0100086F
:10017000BF010008BF010008BF0100080000000027
:10018000BF010008BF010008DFF80CD000F04CFAF6
:1001900000480047B52C0008C80C002080F30888F0
:1001A000704700000648804706480047FEE7FEE724
:1001B000FEE7FEE7FEE7FEE7FEE7FEE7FEE7FEE717
:1001C000251E0008890100082DE9F05F0546002082
:1001D00092469B4688460646814640241BE02846B8
:1001E00041464746224600F057F853465A46C01A41
:1001F000914110D311461846224600F03EF82D1AC0
:1002000067EB01084F4622460120002100F035F837
:1002100017EB00094E41201EA4F10104DFDC484623
:1002200031462A464346BDE8F09FD2B201E000F8CD
:10023000012B491EFBD270470022F6E710B513468A
:100240000A4604461946FFF7F0FF204610BD30B5B8
:100250000B46014600202022012409E021FA02F584
:100260009D4205D303FA02F5491B04FA02F528441E
:10027000151EA2F10102F1DC30BD202A04DB203A78
:1002800000FA02F1002070479140C2F1200320FAE9
:1002900003F3194390407047202A04DB203A21FAE7
:1002A00002F00021704721FA02F3D040C2F120028F
:1002B00091400843194670472DE9FE4F804681EA78
:1002C0000300C00F0C46009021F0004123F00045D0
:1002D000B8EB0200A94105D24046214690461C4693
:1002E0000B46024623F00040104347D0270DC7F3CA
:1002F0000A00C3F30A510290401A019040286BDAB9
:10030000C3F3130040F4801B0098924620B10023F1
:10031000D2EB030A63EB0B0B01985946C0F1400284
:100320005046FFF7AAFF06460D4650465946019A29
:1003300000F08CF910EB08006141002487EA1152AB
:1003400084EAE7731A4340D0009A62B3019A012A03
:100350004FEA075215DC001B61EB02014FF000422F
:1003600002EA0752CDE90042001C41F580113246F5
:100370002B4600F08CF903B0BDE8F08F40462146D3
:10038000F9E7001B61EB0201001C41F58013001826
:100390005B412018A2F5001747EB030140EAD57036
:1003A000B6196D4111E06D084FEA360645EAC07591
:1003B0004FEA0752001B61EB0201001C41F580115E
:1003C00049084FEA30000019514132462B4603B02C
:1003D000BDE8F04F00F04CB9009801224000002326
:1003E000D0EB020263EBE073009821464FEAE07421
:1003F000B8EB000061EB0401E9E783F000435BE741
:1004000081F0004158E72DE9FE4F81EA030404F032
:10041000004421F0004100944FF0000B23F0004312
:1004200050EA01045ED052EA03045BD0C3F30A54DD
:10043000C1F30A552C44A4F2F3340194A0FB0254F6
:10044000C1F3130141F48011C3F3130343F4801388
:1004500001FB024400FB034E840A970A44EA8154DC
:1004600047EA8357A4FB076802958D0A05FB0785B9
:100470004FEA932C04FB0C542705029D4FEA0658C3
:1004800047EA1637B5EB08056EEB070C870E920EA0
:1004900047EA811742EA8312A7FB0201B6EB0B0180
:1004A00064EB00042B0D43EA0C335E1844EB1C5044
:1004B000DA465146E7FB0201C5F313044FEA0B335A
:1004C00043EA14534FEA0432019C43EA0603A4F1C1
:1004D0000C040294009CCDE900B400F0D8F803B0FD
:1004E000BDE8F08F00200146F9E72DE9F04D81EAE3
:1004F000030404F0004B21F0004514464FF0000ABD
:1005000023F0004150EA050220D054EA01021DD038
:10051000C5F30A570246C5F31303C1F31300C1F331
:100520000A5640F4801543F48013A7EB0608101B0D
:10053000D64608F2FD3873EB050002D308F1010836
:1005400001E092185B41B8F1000F03DA0020014688
:10055000BDE8F08D00204FF48011064684460EE081
:10056000171B73EB050705D3121B63EB050306434B
:100570004CEA010C49084FEA300092185B4150EAFE
:100580000107EDD152EA030012D082EA040083EAA7
:100590000501084305D0101BAB4106D20122002300
:1005A00006E000224FF0004302E06FF0010253101A
:1005B0001AEB06004CEB085110EB0A0041EB0B0163
:1005C000BDE8F04D00F054B8C1F30A52C1F3130175
:1005D00040F2FF3341F480119A4202DA00200146D2
:1005E000704740F233439A42A2F2334202DC524255
:1005F000FFF752BEFFF741BE30B5041E71F1000493
:1006000004DB4FF00044404264EB0101141E73F11F
:10061000000405DB1C464FF00043524263EB040329
:10062000994208BF904230BD064C074D06E0E06895
:1006300040F0010394E8070098471034AC42F6D329
:10064000FFF7A6FD9C2D0008BC2D0008202A06DB24
:10065000CB17203A41FA02F043EAE07306E041FA90
:1006600002F3D040C2F1200291400843194670477E
:1006700010B5141E73F1000408DA401C41F10001AA
:1006800092185B411A4301D120F0010010BD2DE901
:10069000F04D92469B4611B1B1FA81F202E0B0FAF8
:1006A00080F220329046FFF7E8FD04460F4640EA0C
:1006B0000A0041EA0B0153465A46084313D011463B
:1006C00053EA010019D0C8F140025046FFF7E4FD9B
:1006D00005460E46504659464246FFF7CEFD0843B2
:1006E00005D0012004E020463946BDE8F08D002009
:1006F000054346EAE0762C4337430A986305E40A4B
:10070000A0EB08000022FD0A44EA47540A3002D553
:1007100000200146E9E7010510196941DDE90845B6
:1007200000196941BDE8F04DA2E7FEE77047704748
:10073000002229B101291AD002291BD04FF440729E
:100740000E490B6823F440730B600B6813430B6076
:100750000A6822F0F8020A600A68022303EBC0006C
:1007600002430A60086840F48030086070474FF424
:100770008072E5E74FF40072E2E70000103C0240AF
:100780001348016889050FD5016821F400710160E3
:10079000016841F400610160016821F400610160B9
:1007A000016841F400710160016849050FD50168D5
:1007B00021F480610160016841F4805101600168A9
:1007C00021F480510160016841F48061016070474B
:1007D000003C024008490A6822F440720A600A6834
:1007E00042F004020A600A684FF4803343EA0020B2
:1007F00002430A6070470000103C0240064A13683A
:1008000023F44073136013681360136843F001030B
:100810001360017070470000103C0240084910B599
:100820000C6824F440740C600C6844F440740C6050
:100830000C6844F001040C600260436010BD0000CD
:10084000103C0240074A136823F440731360136896
:1008500043F480731360136843F001031360018055
:1008600070470000103C0240074A136823F44073AD
:100870001360136843F400731360136843F00103BB
:100880001360016070470000103C0240174908687F
:10089000C206174805D5C26942F01002C261102293
:1008A0000A600A68920605D5C26942F00802C26170
:1008B00020220A600A68520605D5C26942F0040285
:1008C000C26140220A600A68120605D5C26942F078
:1008D0000202C26180220A600A68920705D5C269D5
:1008E00042F02002C2610220086070470C3C0240C6
:1008F000A408002070B5114904460020C86100F02A
:100900006DFA06460E4D09E0601C07D024B100F0D8
:1009100065FA801BA04201D9032070BD2868C0037E
:10092000F2D42868C00701D001202860286810F0A0
:10093000F200F2D0FFF7AAFF012070BDA40800204A
:100940000C3C024090F83510022903D0802141650B
:1009500001207047052180F835100068016821F0FA
:10096000010101600020704770B5044600F036FABE
:100970000546601C02D004480078044400F02EFABA
:10098000401BA042FAD370BD140000202DE9F047AF
:10099000044622480F46017E01290AD001218046E3
:1009A00001764CF250394846FFF7A4FF020003D00D
:1009B0002FE00220BDE8F0874FF0FF30386020685C
:1009C000174D012801D0A6681CE0207C6168FFF764
:1009D00001FF4846FFF78EFF0246286820F004001A
:1009E000286014E0217C3046FFF7A2FE4846FFF75E
:1009F00081FF0200286820F0FA00286001D03E60E4
:100A000005E0761CD4E902100844B042EAD8FFF7AA
:100A1000B7FE002188F818101046CBE7A408002084
:100A2000103C02400348016841F000410160002091
:100A300070470000103C02402DE9F0471B4E054670
:100A40001446307E1F468946012808D001203076A2
:100A50004CF250384046FFF74DFF18B114E0022029
:100A6000BDE8F0879DB1012D16D0022D19D0224688
:100A70003B464846FFF7D2FE4046FFF73BFF0C4996
:100A80000A6822F001020A6000213176E8E7E1B24B
:100A90004846FFF7B3FEEFE7A1B24846FFF7D2FEA4
:100AA000EAE721464846FFF7DFFEE5E7A408002015
:100AB000103C0240074900200A68002A09DA054A6A
:100AC000054B0C3A1360054B13600968002900DAE6
:100AD00001207047103C024023016745AB89EFCDF0
:100AE0002DE9F04F0022DFF81CB101264FF00F096D
:100AF00006FA02F401EA0403A3427CD122F00307C0
:100B00005F44D7F8088895074FEA157C09FA0CFA74
:100B10000AEA0805DFF8F080404502D14FF00008EE
:100B200032E0DFF8E880404502D14FF001082BE0C9
:100B3000DFF8DC80404502D14FF0020824E0DFF806
:100B4000D480404502D14FF003081DE0DFF8C88093
:100B5000404502D14FF0040816E0DFF8C080404560
:100B600002D14FF005080FE0DFF8B480404502D114
:100B70004FF0060808E0DFF8AC80404502D14FF0A6
:100B8000070801E04FF0080808FA0CF8A84515D14D
:100B9000D7F808C82CEA0A0CC7F808C8224D2F68F5
:100BA0009F432F602D1D2F689F432F602D1D2F68A1
:100BB0009F432F602D1D2F689F432F6005685700AE
:100BC0000323BB409D430560D50800EB8505D5F8A0
:100BD00020C057074FEAD76809FA08F72CEA070C34
:100BE000C5F820C085689D4385604568A54345607C
:100BF000C4689C43C460521C102AFFF479AFBDE85E
:100C0000F08F00000030014000000240000402406C
:100C100000080240000C0240001002400014024094
:100C200000180240001C0240003C01402DE9F84F32
:100C3000DFF87CB100224FF001084FF0030A4FF0BB
:100C40000F090BF1040E00BF0B6808FA02F42340F1
:100C5000A3426ED14D68022D01D0122D0ED1D508C0
:100C600000EB850CDCF820505607F70E09FA07F662
:100C7000B5430E69BE402E43CCF82060066855008F
:100C80000F790AFA05FC07F0030726EA0C06AF40C5
:100C9000374307604E68012E05D0022E03D0112E77
:100CA00001D0122E0ED18668CF6826EA0C06AF401E
:100CB000374387604668A6430C79C4F30014944018
:100CC00034434460C6688C6826EA0C06AC40344362
:100CD000C4604C68E40065D5364C256845F4804511
:100CE0002560246822F0030504F480440094324C0B
:100CF0002E19D6F8084895072F0F09FA07F5AC43C7
:100D00002E4DA84201D1002524E02D4DA84201D14D
:100D100001251FE02B4DA84201D102251AE02A4DE2
:100D2000A84201D1032515E0284DA84202D104258F
:100D300010E037E0264DA84201D105250AE0254DF7
:100D4000A84201D1062505E0234DA84201D107257F
:100D500000E00825BD402543C6F80858DBF80040F0
:100D60005D464E689C43F60300D51C432C60DEF8BC
:100D7000004075464E689C43B60300D51C432C606A
:100D80000B4D08352C684E689C43F60200D51C4379
:100D90002C60074D0C352C684E689C43B60200D57C
:100DA0001C432C60521C102AFFF44EAFBDE8F88F94
:100DB000003C014044380240003001400000024045
:100DC0000004024000080240000C024000100240F3
:100DD0000014024000180240001C024001488068D4
:100DE0007047000014000020024881680278114416
:100DF00081607047140000200B4810B5016841F471
:100E000000710160016841F480610160016841F492
:100E100080710160032000F07FF8002000F006F8E8
:100E200000F024F8002010BD003C024070B50D4DCC
:100E300004464FF47A712878B1FBF0F00A4909684A
:100E4000B1FBF0F000F0F2FA48B9102C07D2002202
:100E50002146501E00F040F800206C6070BD01205B
:100E600070BD000014000020200000200A4808B5D2
:100E7000016841F480410160006800F48040009006
:100E80000548001F016841F080510160006800F0D2
:100E90008050009008BD00004438024000280DDB5F
:100EA00000F01F02012191404009800000F1E02084
:100EB000C0F88011BFF34F8FBFF36F8F70470028CA
:100EC00009DB00F01F02012191404009800000F180
:100ED000E020C0F800117047F0B40E4B1B680C46C0
:100EE000C3F30223C3F10705042D00D90425191DFE
:100EF000072901D2002300E0DB1E012606FA05F1D6
:100F0000491E214099409E40761E16403143F0BC58
:100F100001F052BA0CED00E0064900F00702086843
:100F20004FF6FF03184040EA0220034A10430860CE
:100F3000704700000CED00E00000FA052DE9F047D5
:100F40000E46050065D0DFF81481D8F80000F7B22E
:100F500000F00F00B04207D288F80070D8F8000007
:100F600000F00F00B04254D128683D4C810712D5E3
:100F7000400703D5206840F4E0502060287800073F
:100F800003D5206840F4604020602068A96820F004
:100F9000F000084320602878C0072DD030496868E9
:100FA0000839012812D0022813D0032811D009686B
:100FB000890700292DDA216821F00301014321600E
:100FC000FFF70CFF814641F2883A0EE00968890379
:100FD000EFE709688901ECE7FFF700FFA0EB0901E3
:100FE000514502D90320BDE8F0872068696800F008
:100FF0000C00B0EB810FEFD1D8F80010404601F0A3
:101000000F01B14207D90770006800F00F00B0422D
:1010100001D00120E7E72878400705D52068E96876
:1010200020F4E050084320602878000706D52068A7
:10103000296920F4604040EAC100206000F036F8E1
:101040002168084AC1F30311515CC8400649086091
:101050000020FFF7EBFE0020C5E70000003C024047
:1010600008380240842D000820000020044805496B
:1010700000680968044AC1F38221515CC840704786
:101080002000002008380240942D0008044805493B
:1010900000680968044AC1F34231515CC840704796
:1010A0002000002008380240942D0008154810B593
:1010B000006810F00C02144813D01449042A0FD011
:1010C000082A0ED10F4C241F2268236802F03F0229
:1010D0005B0207D52068C0F38810A0FB010106E081
:1010E000084610BD2168C1F38811A1FB000100234F
:1010F000FFF76AF82168C1F30141491C4900B0FBC0
:10110000F1F010BD083802400024F40040787D0161
:101110002DE9F84F050076D02878DFF8F8B2BE4CFC
:10112000C00749D0DBF800105846C1F381010129FE
:1011300008D00068C0F3810002280AD1201D006891
:10114000400206D52068800336D568680028E2D0C2
:1011500032E06868B0F5803F10D0B0F5A02F20686D
:1011600010D020F480302060206820F4802020609F
:101170006868A0B1FFF732FE06460CE0206840F434
:101180008030F4E740F480202060F7E7FFF726FE88
:10119000801B642873D820688003F7D50CE0FFF724
:1011A0001DFE064605E000BFFFF718FE801B642801
:1011B000F0D820688003F7D42878DFF860828007B1
:1011C0004FF000093ED5DBF80010584611F00C0F27
:1011D00009D00068C0F3810002280BD18D48001FA0
:1011E0000068400206D42068800715D5E868012809
:1011F00009D111E0E868B8B10120C8F80000FFF794
:10120000EDFD064605E002E1FFF7E8FD801B022840
:10121000C0D820688007F7D52068296920F0F80039
:1012200040EAC10020600DE0C8F80090FFF7D6FD4D
:10123000064604E0FFF7D2FD801B02281FD8206875
:101240008007F7D42878000722D5724E7448696960
:101250006C3671B101210160FFF7C0FD074604E063
:10126000FFF7BCFDC01B022809D830688007F7D5FE
:101270000EE0C0F80090FFF7B1FD074605E083E0FF
:10128000FFF7ACFDC01B02287ED830688007F7D47A
:101290002878400768D5DFF87CA100270AF1380AD2
:1012A000DAF80000C0000BD4DAF8001041F08051E9
:1012B000CAF80010DAF80000012700F08050009012
:1012C000584E3068C00510D4306840F480703060EB
:1012D000FFF784FD009005E0FFF780FD0099401ABC
:1012E000022851D83068C005F6D54A4EA86868363D
:1012F00001280FD00528306810D020F001003060A0
:10130000306820F004003060A868B8B1FFF766FDCF
:1013100000900FE0306840F00100F4E740F0040076
:101320003060F7E7FFF75AFD0099411A41F2883023
:10133000814264D830688007F4D50EE0FFF74EFD97
:10134000009007E0FFF74AFD0099411A41F288300A
:10135000814254D830688007F4D42FB1DAF80010F5
:1013600021F08051CAF80010A869C0B3DBF8001062
:10137000C1F3810102294AD00228484607D0C8F8A3
:101380006000FFF72BFD00E039E005463AE04746F4
:10139000C8F86000FFF722FD064604E0FFF71EFDD7
:1013A000801B02282BD820688001F7D4D5E90701DB
:1013B0000843A96A1C4A490802EB01416A6A41EAEA
:1013C0008211084395F82C1040EA01611148001F72
:1013D000016001203866FFF701FD054605E014E0D5
:1013E000FFF7FCFC401B022809D820688001F7D5D4
:1013F0000BE000BFFFF7F2FC401B022802D90320DC
:10140000BDE8F88F20688001F4D40020F8E70120BF
:10141000F6E700000838024000380240000047426A
:10142000800E4742007000400000FFFF10B5401ED4
:10143000B0F1807F01D3012010BD4FF0E024606146
:101440000F21601700F0B8FF0020A0610720206185
:10145000002010BD7047704770B590F83C20012AFD
:1014600019D0012400F83C4F0222427050F83C3C55
:101470005A689D6822F070060A684968324325F070
:10148000800529435A6050F83C2C9160447000213B
:101490000170084670BD022070BD10B504460220E0
:1014A00084F83D002068016A41F21112114207D10F
:1014B000016A9210114203D1016821F0010101601B
:1014C000204600F021F8002084F83D0084F83C001C
:1014D00010BD10B5040003D094F83D0010B107E032
:1014E000012010BD002084F83C00204600F01EF8CA
:1014F000022084F83D00211D206800F0C3FC01207B
:1015000084F83D00002010BD00680649884207D1DC
:101510000548016821F0100101603620FFF7BEBCCC
:1015200070470000001000404038024008B50068D5
:101530000B49884212D10B48016841F0100101604B
:101540000068002200F01000009011463620FFF7DE
:10155000C3FCBDE808403620FFF7B1BC08BD000061
:1015600000100040403802400168CA6842F00102A1
:10157000CA600068816801F00701062903D001688C
:1015800041F00101016000207047704770B50446CA
:10159000006801694FF00005C943890715D4C16887
:1015A000C943890711D4E91E016101202077206811
:1015B00080698007204602D0FFF7E7FF04E000F0D3
:1015C00098F8204600F096F8257720680169C9430D
:1015D000490717D4C168C943490713D46FF0040100
:1015E0000161022020772068806910F4407F204646
:1015F00002D0FFF7CAFF04E000F07BF8204600F0BD
:1016000079F8257720680169C943090716D4C168AC
:10161000C943090712D46FF0080101610420207743
:101620002068C0698007204602D0FFF7AEFF04E0C3
:1016300000F05FF8204600F05DF82577206801692A
:10164000C943C90617D4C168C943C90613D46FF08A
:1016500010010161082020772068C06910F4407FE4
:10166000204602D0FFF791FF04E000F042F8204648
:1016700000F040F8257720680169C943C90708D1FF
:10168000C168C943C90704D1891E0161204600F021
:1016900033F820680169C943090609D4C168C94300
:1016A000090605D46FF0800101612046FFF7D2FEE4
:1016B00020680169C943490609D4C168C94349067C
:1016C00005D46FF040010161204600F035F8206834
:1016D0000169C94389060BD4C168C943890607D487
:1016E0006FF0200101612046BDE87040FFF7B3BEF6
:1016F00070BD7047704700000D4810B54178491C17
:10170000417041780A290ED90022427009490B68BC
:10171000002B08D00378012B05D043680C68A34246
:1017200002D10121017010BD02700968416010BD35
:10173000000000200C000020704710B5040013D0FA
:10174000242084F839002068C16821F40051C16068
:10175000204600F0C7F80020E06384F8390084F8E0
:101760003A0084F8380010BD012010BD7047000019
:1017700070B5026804461068D168536910F00F0F05
:1017800050D003F0010501F4907635435DD0C207D7
:1017900005D0CA0503D5E26B42F00102E2634207BD
:1017A00005D5DA0703D0E26B42F00202E26382075A
:1017B00005D5DA0703D0E26B42F00402E2630207C8
:1017C00005D5DA0703D0E26B42F00802E263E26B70
:1017D000002A33D0800604D5880602D5204600F0C2
:1017E000CBFB20684069E16BC0F38010090700D48F
:1017F00028B3204600F0B2FB2068416949061AD59B
:10180000416921F040014161606BA0B11B49016554
:10181000606BFFF797F8002810D0606B016DBDE892
:1018200070400847830610D58B060ED52046BDE8CC
:10183000704000F0A1BB2046FFF798FF70BD204626
:10184000FFF794FF0020E06370BD030606D50B068A
:1018500004D52046BDE8704000F030BD4006F3D509
:101860004806F1D5D168204621F04001D160202101
:1018700084F8391000F035F970BD00004D1F0008E4
:1018800070B5040004D094F83900002510B106E0CA
:10189000012070BD84F83850204600F03FF8242025
:1018A00084F839002068C16821F40051C1602046E5
:1018B00000F0AEFB2068016921F4904101612068CD
:1018C000416921F02A0141612068C16841F4005159
:1018D000C160E563202084F8390084F83A000020D4
:1018E00070BD000010B50068094988420ED1094852
:1018F000016821F0100101604FF4C0610648FFF754
:10190000EFF8BDE810402520FFF7C8BA10BD000071
:1019100000100140443802400000024010B586B07B
:10192000044614216846FEF787FC1849206888425F
:1019300029D11748016841F010010160006800F0EA
:101940001000059012481438016841F0010101604F
:101950000068694600F0010005904FF4C0600090F7
:1019600002200190012002900320039007200490A0
:101970000848FFF75BF9002211462520FFF7ACFA73
:101980002520FFF79CFA06B010BD000000100140B2
:10199000443802400000024090F83A30202B22D117
:1019A000F9B1F2B190F83830012B1CD081628285F8
:1019B000C2850021C163222280F83A2080F83810C5
:1019C0000168CA6842F48072CA6001684A6942F0DC
:1019D00001024A610068C16841F02001C160002035
:1019E00070470120704702207047000000680A49D4
:1019F000884210D109484168B1F5F03F06D201781C
:101A0000074A4368D1544168491C41600122034997
:101A10000448FFF7C1BF70470010014008000020D4
:101A200000100020640000202DE9F843044690F8DF
:101A300039001F4616460D46202850D1A5B19EB14B
:101A400094F8380001284AD0012084F838004FF07B
:101A50000008C4F83C80212084F83900FFF7BEF963
:101A6000A6848146E68426E00120BDE8F883E08C68
:101A7000401EE084A0684B46B0F5805F4FF0000246
:101A80004FF080012046009703D000F048FCE8B9F1
:101A90000DE000F044FCC8B928882168C0F30800B4
:101AA0004860206908B16D1C05E0AD1C03E02168A9
:101AB00015F8010B4860E08C0028D8D14B46002275
:101AC00040212046009700F02AFC08B10320CCE713
:101AD000202084F8390084F838800020C5E70220EF
:101AE000C3E77047FEE7000070B5044600680B4985
:101AF0000840B0F1005F0FD10948FFF71EFE09480A
:101B0000FFF7CBFC6068084D28602068FEF746FBB5
:101B10002868BDE87040004770BD00000000FE2F3F
:101B20006400002024000020100000202DE9F04770
:101B30000025904606460C462F464FF40079DFF804
:101B400054A019E0E078A178000640EA01406178ED
:101B50004A4640EA012114F8040B08434AF82500DC
:101B60006D1CADB2954206D100250A49304600F001
:101B7000C5F806F500663F1D4745E3D3002D06D0A6
:101B80002A463046BDE8F047024900F0B7B8BDE844
:101B9000F0870000A40000200D4808B5016841F05E
:101BA00004010160016801F004010091016841F045
:101BB00080010160016801F080010091016841F03D
:101BC00001010160006800F00100009008BD000004
:101BD000303802401CB500240F4800940D49019490
:101BE00001605321C0E9011440F2E731C160802156
:101BF0008161FFF76EFC08B1FEF799FD009469461C
:101C000005480194FFF728FC002801D0FEF78FFD5E
:101C10001CBD000000100040240000200C4810B53E
:101C20000A4901604FF4E1314160002181600C22DA
:101C3000C160C0E904128161C161FFF721FE002883
:101C400003D0BDE81040FEF772BD10BD001001408A
:101C500064000020FEE77047704700001C4988427E
:101C600001D2002070471B49884201D201207047F1
:101C70001949884201D2022070471849884201D28E
:101C8000032070471649884201D204207047154945
:101C9000884201D2052070471349884201D20620AC
:101CA00070471249884201D2072070471049884284
:101CB00001D2082070470F49884201D2092070479D
:101CC0000D49884201D20A2070470B20704700005E
:101CD000004000080080000800C000080000010863
:101CE00000000208000004080000060800000808C0
:101CF00000000A0800000C0800000E082DE9F04F53
:101D000087B005464FF0000800EB82060F462C46D0
:101D1000CDF81480800739D1B4F1006F36D31D4857
:101D2000864233D8FEF7C6FE4CF2503B4FF0010915
:101D30004FF0020A16E02068401C0FD02046CDF874
:101D40000C90FFF78BFF029005A9CDF810A0CDF8FD
:101D500000806846FEF71AFE30B900E0241D5846A0
:101D6000FEF7C8FDB442E6D35846FEF7C3FD48B1BE
:101D70000AE00023294602203A68FEF75DFE18B902
:101D80002D1D3F1DB542F4D3FEF74CFE07B0BDE854
:101D9000F08F00000000FF1F7047FFF725B800001C
:101DA00030B593B030216846FEF746FA14210CA8EE
:101DB000FEF742FA19480025016841F080510160A0
:101DC000006800F0805011901548016841F480418E
:101DD00001600068022400F480401190012003900B
:101DE0001020009406940490CDE907504FF4A87099
:101DF000CDE9090404200B906846FFF789F90CA986
:101E00000F2081E831004FF4A0500F90E0021090B5
:101E100005210CA8FFF792F813B030BD40380240FE
:101E2000007000401048016841F4700101600F48E3
:101E3000016841F0010101600C4A00210832116083
:101E400002680B4B1A400260031D0A4A1A600268BE
:101E500022F48022026005480C30016002495806D5
:101E6000803908607047000088ED00E000380240CB
:101E7000FFFFF6FE103000240148FFF787BB00008B
:101E800024000020F0B50268254C264D264E274F31
:101E9000274B4FF0804CA04209D0604507D0A842A4
:101EA00005D0B04203D0B84201D0984204D122F00C
:101EB000700E4A6842EA0E02A0421BD0604519D05B
:101EC000A84217D0B04215D0B84213D0984211D0D2
:101ED000184DA8420ED0184DA8420BD0174DA8425D
:101EE00008D0174DA84205D0164DA84202D0164D75
:101EF000A84203D122F44075CA682A434D6922F0F2
:101F000080022A4302608A68C2620A688262A04232
:101F100001D0984201D10969016301214161F0BDFD
:101F2000000001400004004000080040000C004098
:101F300000040140004001400044014000480140CD
:101F400000180040001C00400020004010B5806BCD
:101F50000021C185C184FFF709FC10BD0168CA6872
:101F600022F49072CA6001684A6922F001024A6153
:101F7000202180F83A10704710B590F83A102229C5
:101F800001D0022010BD8168B1F5805F11D00169D8
:101F9000002901681FD0496801F07F03816A4A1C4B
:101FA00082620B70C18D491E0904090CC18518D0CD
:101FB0002BE00269816A002A0268526805D0D2B219
:101FC0000A80816A491C8162ECE7C2F308020A8038
:101FD000816A891CF7E74A68816A4B1C83620A7030
:101FE000E0E70168CA6822F02002CA600168CA6896
:101FF00022F48072CA6001684A6922F001024A61D3
:10200000202180F83A10FFF7F1FC002010BD0000FD
:102010002DE9F041044600680169E26821F440516D
:10202000114301612169A068E269084361691143B4
:1020300022680843D16849F20C6399430143D16097
:1020400020684169A26921F4407111434161E2694C
:102050006425B2F5004F9748974922684FF032083F
:102060003FD08A4201D082427CD1FFF70FF800EBCB
:10207000C00101EB001061688900B0FBF1F6FFF7C9
:1020800005F800EBC00101EB001061688900B0FBAE
:10209000F1F0B0FBF5F06FF01801484306EB80015A
:1020A00008EB0110B0FBF5F000F0F006FEF7EEFFD4
:1020B00000EBC00101EB001061688900B0FBF1F09A
:1020C000B0FBF5F006EB0016FEF7E0FF00EBC001F9
:1020D00001EB001061688900B0FBF1F7FEF7D6FF55
:1020E000D2E08A4201D082423DD1FEF7CFFF00EB21
:1020F000C00101EB001061684900B0FBF1F0B0FBDA
:10210000F5F00601FEF7C2FF00EBC00101EB001085
:1021100061684900B0FBF1F7FEF7B8FF00EBC001C2
:1021200001EB001061684900B0FBF1F0B0FBF5F085
:102130006FF01801484307EB800108EBC100B0FBCA
:10214000F5F000F0F80006EB4006FEF79FFF00EB0D
:10215000C00101EB001061684900B0FBF1F7FEF728
:1021600095FF3CE055E0FEF781FF00EBC00101EB7D
:10217000001061684900B0FBF1F0B0FBF5F006011A
:10218000FEF774FF00EBC00101EB0010616849002D
:10219000B0FBF1F7FEF76AFF00EBC00101EB0010A6
:1021A00061684900B0FBF1F0B0FBF5F06FF0180189
:1021B000484307EB800108EBC100B0FBF5F000F0ED
:1021C000F80006EB4006FEF751FF00EBC00101EB03
:1021D000001061684900B0FBF1F7FEF747FF00EB24
:1021E000C00101EB001061684900B0FBF1F0B0FBE9
:1021F000F5F06FF01801484307EB800108EBC100D0
:10220000B0FBF5F000F00700216830448860BDE8BD
:10221000F081FEF72BFF00EBC00101EB00106168BD
:102220008900B0FBF1F6FEF721FF00EBC00101EBE6
:10223000001061688900B0FBF1F0B0FBF5F06FF0C1
:102240001801484306EB800108EB0110B0FBF5F0E4
:1022500000F0F006FEF70AFF00EBC00101EB0010F2
:1022600061688900B0FBF1F0B0FBF5F006EB0016F9
:10227000FEF7FCFE00EBC00101EB00106168890075
:10228000B0FBF1F7FEF7F2FE00EBC00101EB00102E
:1022900061688900B0FBF1F0B0FBF5F06FF0180158
:1022A000484307EB800108EB0110B0FBF5F000F0AC
:1022B0000F00A9E7001401400010014090F8391008
:1022C000212901D0022070478168B1F5805F016A41
:1022D0000BD04A1C0262026809785160C18C491E09
:1022E0000904090CC1840ED017E009880268C1F303
:1022F0000801516001690029016A02D0491C01628C
:10230000ECE7891CFBE70168CA6822F08002CA601A
:102310000068C16841F04001C160002070472DE9AC
:10232000F041984617460E460446069D1DE0681C7F
:102330001BD02DB1FEF752FDA0EB0800A84214D926
:102340002068C16821F4D071C1602068416921F022
:1023500001014161202084F8390084F83A0000200E
:1023600084F838000320BDE8F0812068006836EA70
:10237000000004D00020B842D9D00020F3E70120AB
:10238000F9E700000148FFF7F3B9000064000020FE
:10239000FEE7000037B514460846064B6A4621465C
:1023A00000F0ECF804466946002000F07EFC204670
:1023B0003EBD0000AB2C00080907090E002804DB15
:1023C00000F1E02080F80014704700F00F0000F1E9
:1023D000E02080F8141D704702E008C8121F08C1F1
:1023E000002AFAD170477047002001E001C1121F96
:1023F000002AFBD1704700002DE9FF5F82B0002169
:10240000DDE90430020DDDF840B0034318D044F696
:102410001050A2F2FF3242431514119801281FD028
:10242000A5EB0B00401C5FEA000A4FF000064E4F80
:10243000DFF83891B046504615D5CAF1000413E0D4
:10244000119801244AA3012801D16FEA0B010298D7
:10245000119AC0E90031C0E9024206B0BDE8F09F20
:10246000CBF10000DFE704460021404A491842EB67
:102470000450CDE9001012E0E00707D032463B4699
:1024800040464946FDF7BFFF8046894632463B46F7
:1024900010461946FDF7B7FF06460F466410002C9C
:1024A000EAD1DDE90401DDE90023BAF1000F06DA23
:1024B000FDF7A9FF42464B46FDF7A5FF05E0FEF7F5
:1024C00014F842464B46FEF710F804460E4600222A
:1024D000284BFEF791F803D84FF0FF30014607E094
:1024E0000022254B20463146FDF7E6FEFEF76CF84C
:1024F000102409E0002C0ADB0A220023FDF764FE09
:10250000039B30321A55641E50EA0102F2D1641C5A
:10251000039AC4F111031444119A012A03D0012231
:1025200008430DD10AE0084304D000204FF0110BFE
:10253000119072E7A3EB0B056D1E0DE05B4504DD0A
:102540004FF0000205F1010504E003DA4FF000024C
:10255000A5F10105002AECD002981199C0E90231D9
:10256000C0E9004579E70000000014400000F03F9A
:10257000300000000000F0430000E03F2DE9FF4F75
:1025800095B09B468946064600250FE2252877D15F
:1025900000242746F84A0121059400E0044316F878
:1025A000013F203B01FA03F01042F7D130782A288E
:1025B00011D06FF02F033078A0F13002092A16D81D
:1025C000059A44F0020402EB820203EB420210443B
:1025D000761C0590EFE759F8042B0592002A03DAE0
:1025E000504244F40054059044F00204761C3078C4
:1025F0002E2816D116F8010F44F004042A280DD015
:102600006FF02F023078A0F13003092B09D807EBC7
:10261000870302EB4303C718761CF3E759F8047BE2
:10262000761C30786C280FD006DC4C2817D0682830
:102630000DD06A2814D104E0742810D07A280FD164
:102640000DE044F400140AE044F4801401E044F482
:1026500040147278824202D104F58014761C761CF4
:10266000307866280BD013DC582877D009DC002896
:1026700075D04528F6D04628F4D047281AD19DE1D8
:1026800018E0632835D0642879D0652812D195E107
:10269000702873D008DC6728F1D069286FD06E28C5
:1026A0000DD06F2806D1B5E073282CD0752875D0D1
:1026B000782874D05A46179990476D1C75E1C4F379
:1026C0000250022809D003280DD0D9F800100428A0
:1026D0000DD00D6009F1040967E1D9F80010EA177F
:1026E000C1E90052F6E7D9F800100D80F2E70D704D
:1026F000F0E719F8041B8DF8001000208DF8010098
:10270000EA46012003E059F804AB4FF0FF306107BF
:102710004FF0000102D40DE008F101018846B942F2
:102720000FDA8045F8DB1AF808100029F4D108E028
:1027300008F1010188468142FADB1AF808100029E5
:10274000F6D105985B46A0EB080721463846179A54
:1027500000F094FA284400EB080507E04DE029E179
:102760000DE01AF8010B5A4617999047B8F1010885
:10277000F7D25B4621463846179A13E142E00A2217
:102780000092C4F302524FF0000A022A08D059F80E
:1027900004CB032A4FEAEC710AD00DE029E02AE0CD
:1027A00009F1070121F00702F2E802C1914609E0B0
:1027B0000FFA8CFC4FEAEC71042A03D14FFA8CFC1F
:1027C0004FEAEC71002907DA0A460021DCF1000C1F
:1027D00061EB02012D2202E0220504D52B228DF8A7
:1027E0000420012203E0E20701D02022F7E790460F
:1027F00059E00A2102E010220DE010214FF0000AFA
:1028000000910BE010224FF0000A44F00404082766
:10281000009203E008224FF0000A0092C4F3025233
:10282000022A05D059F804CB0021032A08D009E078
:1028300009F1070121F00702F2E802C1914605E023
:102840001FFA8CFC042A01D10CF0FF0C4FF0000899
:10285000220728D5702806D0009B83F0100353EA86
:102860000A0305D00EE040228DF80420012208E082
:102870005CEA010206D030228DF804208DF80500B4
:1028800002229046009B83F0080353EA0A030AD110
:102890005CEA010201D1620705D530228DF80420DF
:1028A0004FF001087F1E582804D034A003900EA8D2
:1028B00002900DE036A0F9E753466046009AFDF716
:1028C00083FC84460398825C0298401E029002704A
:1028D0005CEA0100F0D1029806A9081A00F1200A6A
:1028E000600702D524F4803400E00127574502DD5B
:1028F000A7EB0A0000E0002000EB0A010090059819
:102900004144401A0590E00306D45B462146179ADD
:10291000059800F0B3F90544002706E001A85A46DF
:10292000C05D179990476D1C7F1C4745F6DBE0039F
:102930000CD55B462146179A059800F09FF905448F
:1029400004E030205A46179990476D1C0099481EA4
:1029500000900029F5DC08E0029802995A460078B8
:10296000491C0291179990476D1CBAF10001AAF118
:10297000010AF1DC65E10000092801003031323341
:1029800034353637383961626364656600000000AB
:102990003031323334353637383941424344454695
:1029A0000000000000F058F90544761C307800283B
:1029B0007FF4ECAD19B02846BDE8F08F620700D473
:1029C000062709F1070222F0070CFCE80223E14682
:1029D00003F000485FEA080C02D00FF2702C0DE003
:1029E0005FEA045C02D50FF2682C07E05FEAC47C62
:1029F00002D00FF2602C01E0AFF2700C4FF0FF3804
:102A000023F00043CDF850C065280CD006DC4528E3
:102A100009D046281DD047283DD13DE0662818D072
:102A200067287ED138E00021112F01DB112000E062
:102A3000781CCDE9000106A90EA8FFF7DDFCDDE951
:102A40000F010E9A03910021009207F1010A0491EF
:102A50004DE04FF000400097CDE9011006A90EA807
:102A6000FFF7CAFCDDE90F0203920E9B11990022C9
:102A7000DDF80CA00093049211B9791C00EB010A57
:102A8000B7EB0A0004D4C0F1FF3007F1010A04904B
:102A9000AAEB0700019044E0012F00DA0127002192
:102AA000112F01DD112000E03846CDE9000106A913
:102AB0000EA8FFF7A1FCDDE90F010E9A039100219A
:102AC00004910092BA4621070CD40399514500DACB
:102AD0008A46BAF1010F05DD009AAAF10101515CA5
:102AE000302908D0B84202DA10F1040F06DA0121C9
:102AF000CDE9011015E0AAF10101E9E7002805DCA4
:102B0000049901440491AAEB000102E0411C5145E3
:102B100000DD8A460499401A401C01904FF00040A5
:102B20000290200704D40198504501DBCDF80480C1
:102B300000208DF84F0002980DF14F07B0F1004FC3
:102B400025D02B200E9002984FF0020800280CDAB6
:102B5000404202902D200E9007E00A210298FDF7D6
:102B600076FB3031029007F8011DB8F10001A8F1A1
:102B70000108F2DC02980028EFD1791E0E98087047
:102B8000307800F0200040F0450007F8020D12A850
:102B9000C01B00F107081498007800B1012000EB79
:102BA0000A01019801EBE07105984144401A401E6A
:102BB0000590E00306D45B462146179A059800F07D
:102BC0005DF805441498007818B15A461799904753
:102BD0006D1CE00324D55B462146179A059800F04A
:102BE0004DF805441CE00498002807DBDDE90301EB
:102BF000884203DD0098405C179901E01799302066
:102C00005A469047049805F10105401C049001982C
:102C1000401E019004D12E205A46179990476D1CF2
:102C2000BAF10001AAF1010ADDDC05E017F8010B99
:102C30005A46179990476D1CB8F10001A8F1010898
:102C4000F4DC5B462146179A0598ABE62D000000A0
:102C50002B000000200000002DE9F0410446002573
:102C60001E461746880404D405E039462020B047A4
:102C70006D1C641EF9D52846BDE8F0812DE9F041B0
:102C8000044600251E469046C80301D5302700E0C3
:102C90002027880404D505E041463846B0476D1C1E
:102CA000641EF9D52846BDE8F0810A68531C0B6004
:102CB00010707047FEF7A0F8FFF772F8FEF76CFF90
:102CC000FEF7ACFFFEF786FF012216491648FEF715
:102CD00063FE1648FEF748FC154C164D164FDFF8FC
:102CE0005C904FF0000808266420FDF73DFE207838
:102CF0000128F9D16868B6EB106F07D13A6810491E
:102D00004846FEF713FF0FA000F024F8C7F8008034
:102D100084F800806868B6EB106FE5D14846FEF78E
:102D2000E3FEE1E70800002064000020240000200A
:102D300000000020001000200C000020000001080E
:102D400000100020415050BDD3CAD5CDEAB3C90D03
:102D50000A0000000FB410B5FEB081AA6846809941
:102D6000FFF718FB84B24FF47A7322466946044891
:102D7000FEF75AFE7EB0204610BC5DF814FB000042
:102D800064000020000000000000000001020304B5
:102D9000060708090000000001020304BC2D00081A
:102DA0000000002024000000D8230008E02D0008C7
:102DB00024000020DCEF0100E823000800000000F0
:102DC0000000000000000000000000000000000003
:102DD0000100000010000000000000000024F400CA
:040000050800018965
:00000001FF
